306701577990110083430534004067SAENZ PE&A COMBUSTIBLES SAC   CHACABUCO            00414                        110320190000040549308000147452110000000025000000OP98687
306701577990110083730632767907CRISMI COMBUSTIBLES SRL       BELGRANO             00830                        110320190000005245908000019076310000000025000000OP98690
306701577990110083820115129040FARIAS GUSTAVO ADAN           MARIANO MORENO       00462                        110320190000001000608000003639060000000025000000OP98694
306701577990110083930707360786PAPELERA GUTMAN SRL           AVELLANEDA           00476                        110320190000000376608000001369930000000025000000OP98695
306701577990110084033709610819CELESTINO SRL                 SAN MARTIN           00172                        110320190000000088308000000321430000000025000000OP98700
306701577990110084123173412339POGORZELEC FELIX ORLANDO      321 E/312 Y 314 BO 7 00000                        110320190000002386508000008678560000000025000000OP98701
